:020000040000FA
:060000000A128A11F02F24
:100F16001134DB3432349234D83494341434D33428
:100F260010349034EF347E088A007F0882009627BA
:100F36000A128A118000840A04087D060319003407
:100F4600FF0A0319FE0A9A2F831603138701FF303F
:100F5600831203138700203084002D30F00004082C
:100F6600F1000B30F2007008840083130008F300D0
:100F7600F00A7108840073088000F10AF20BB62F9C
:100F860083120313AB01AC01831203132B08203E1B
:100F960084008313000887000B30F2002630F1002E
:100FA6005D30F000F00BD52FF10BD52FF20BD52FBE
:100FB600DC2F013083120313AB070318AC0A003091
:100FC600AC072C08803AFF0080307F02031DED2F0E
:100FD6000B302B020318C32FC72F83133830FD00A5
:100FE6000730FE008B30FF002D3084000A128A1174
:0A0FF6009A2783010A128A11A72F1F
:04400E00E2ECFFFEE3
:00000001FF
