:020000040000FA
:060000000A128A110C280F
:10000800FE00030EF3000A08F4000A128A114C28B5
:100018000A128A110F2883010A128A1113288316DB
:1000280003178901831603138616FA30F50075083D
:100038008605FA30F50075088312031386050B1040
:100048008B158316031301170B178B17961683123C
:10005800031306140630F7001330F600AD30F50030
:10006800F50B3428F60B3428F70B34283B28831279
:10007800031306100630F7001330F600AD30F50014
:10008800F50B4428F60B4428F70B44284B282B285B
:100098008B110B1C6C280B10031083120313061D05
:1000A8000314031C5B288312031306155E288312AE
:1000B800031306110430F2000C30F1003330F00065
:1000C800F00B6428F10B6428F20B64286B288B155D
:0E00D80074088A00730E8300FE0E7E0E09006F
:04400E00F1E7FFFED9
:00000001FF
