:020000040000FA
:060000000A128A11FC2F18
:100A24001530F0007008831203138604F301F401F7
:100A34001F30F00070088312031386060330F2009F
:100A44008A30F1005530F000F00B262DF10B262DE5
:100A5400F20B262D2D2D0130F3070318F40A003074
:100A6400F4077408803AFF0080307F02031D3C2D98
:100A740008307302031C1A2DE030F0007008831252
:100A8400031386050800F301F4011F30F000700819
:100A94008312031386040330F2008A30F1005530C8
:100AA400F000F00B532DF10B532DF20B532D5A2D57
:100AB400E030F00070088312031386050330F2005F
:100AC4008A30F1005530F000F00B662DF10B662DE5
:100AD400F20B662D6D2D0130F3070318F40A003074
:100AE400F4077408803AFF0080307F02031D7C2DD8
:100AF4000230730203180800472DE030F500750832
:100B0400831603138605E030F50075088316031772
:100B14008905E030F50075088312031386050A126F
:100B24008A1145250A128A110330F7008A30F6002B
:100B34005530F500F50B9C2DF60B9C2DF70B9C2DD9
:100B4400A32D0A128A112D270A128A110330F700E5
:100B54008A30F6005530F500F50BAE2DF60BAE2DB0
:100B6400F70BAE2DB52D0A128A1169260A128A11C5
:100B74000330F7008A30F6005530F500F50BC02D30
:100B8400F60BC02DF70BC02DC72D0A128A11EC25C8
:100B94000A128A110330F7008A30F6005530F50046
:100BA400F50BD22DF60BD22DF70BD22DD92D0A121F
:100BB4008A1112250A128A110330F7008A30F600CE
:100BC4005530F500F50BE42DF60BE42DF70BE42D71
:100BD400EB2D912DF301F4011130F0007008831214
:100BE400031386040330F2000830F1007730F0007C
:100BF400F00BFA2DF10BFA2DF20BFA2D0A30F0005E
:100C040070088312031386040330F2000830F100E5
:100C14007730F000F00B0C2EF10B0C2EF20B0C2E97
:100C24008312031306150330F2000830F100773005
:100C3400F000F00B1B2EF10B1B2EF20B1B2EFB30C6
:100C4400F00070088312031386050330F2000830A5
:100C5400F1007730F000F00B2D2EF10B2D2EF20B5E
:100C64002D2EF530F000700883120313860503302F
:100C7400F2000830F1007730F000F00B3F2EF10B5A
:100C84003F2EF20B3F2EEE30F00070088312031358
:100C940086050330F2000830F1007730F000F00BE5
:100CA400512EF10B512EF20B512E0130F307031884
:100CB400F40A0030F4077408803AFF0080307F02A1
:100CC400031D662E0230730203180800EE2DF30193
:100CD400F4018312031306160230F2000430F1000B
:100CE400BA30F000F00B742EF10B742EF20B742E4C
:100CF4000000EF30F0007008831203138605861598
:100D04000230F2000430F100BA30F000F00B882E0B
:100D1400F10B882EF20B882E0000F730F0007008DB
:100D240083120313860506150230F2000430F10025
:100D3400BA30F000F00B9C2EF10B9C2EF20B9C2E83
:100D44000000FB30F000700883120313860586143C
:100D54000230F2000430F100BA30F000F00BB02E93
:100D6400F10BB02EF20BB02E0000FD30F000700835
:100D740083120313860506140230F2000430F100D6
:100D8400BA30F000F00BC42EF10BC42EF20BC42EBB
:100D94000000831203138614FE30F00070088605E9
:100DA4000230F2000430F100BA30F000F00BD82E1B
:100DB400F10BD82EF20BD82E0000FD30F000700895
:100DC40083120313860506150230F2000430F10085
:100DD400BA30F000F00BEC2EF10BEC2EF20BEC2EF3
:100DE4000000FB30F000700883120313860586159B
:100DF4000230F2000430F100BA30F000F00B002FA2
:100E0400F10B002FF20B002F0000F730F0007008F8
:100E140083120313860506160230F2000430F10033
:100E2400BA30F000F00B142FF10B142FF20B142F27
:100E340000000130F3070318F40A0030F4077408C3
:100E4400803AFF0080307F02031D2A2F0230730294
:100E5400031808006B2EF301F40183120313061622
:100E64000230F2000430F100BA30F000F00B382FF9
:100E7400F10B382FF20B382F00001830F0007008F7
:100E84008312031386040230F2000430F100BA30F6
:100E9400F000F00B4B2FF10B4B2FF20B4B2F0000FC
:100EA4001C30F00070088312031386040230F20031
:100EB4000430F100BA30F000F00B5E2FF10B5E2F1E
:100EC400F20B5E2F00001E30F00070088312031333
:100ED40086040230F2000430F100BA30F000F00B66
:100EE400712FF10B712FF20B712F00001F30F000E6
:100EF40070088312031386040230F2000430F100F8
:100F0400BA30F000F00B842FF10B842FF20B842FF6
:100F14000000EF30F00070088312031386050230DE
:100F2400F2000430F100BA30F000F00B972FF10B0F
:100F3400972FF20B972F0000E730F0007008831210
:100F4400031386050230F2000430F100BA30F000D9
:100F5400F00BAA2FF10BAA2FF20BAA2F0000E330FB
:100F6400F00070088312031386050230F200043087
:100F7400F100BA30F000F00BBD2FF10BBD2FF20BD6
:100F8400BD2F0000E130F0007008831203138605C2
:100F94000230F2000430F100BA30F000F00BD02F30
:100FA400F10BD02FF20BD02F0000E030F0007008CE
:100FB4008312031386050230F2000430F100BA30C4
:100FC400F000F00BE32FF10BE32FF20BE32F000003
:100FD4000130F3070318F40A0030F4077408803A68
:100FE400FF0080307F02031DF92F023073020318C3
:0C0FF40008002F2F83010A128A117F2DA4
:04400E00E2ECFFFEE3
:00000001FF
